:100000000C943A140C946B140C946B140C946B14A5
:100010000C946B140C946B140C946B140C946B1464
:100020000C946B140C94EF730C94F9730C948B7305
:100030000C946B140C946B140C946B140C946B1444
:100040000C946B140C9446500C946B140C946B141D
:100050000C946B140C946B140C947F930C9419CB2C
:100060000C946B140C94F6430C946B140C946B145A
:100070000C946B140C946B140C946B140C946B1404
:100080000C9453580C946B140C946B140C946B14C8
:100090000C94E8430C946B140C946B140C946B1438
:1000A0000C946B140C946B140C9425580C946B14D6
:1000B0000C946B140C946B140C946B140C94F757F5
:1000C0000C946B140C946B140C946B140C943B44B4
:1000D0000C946B140C946B140C94DA430C946B1406
:1000E0000C946B14012E40329C346B370337243749
:1000F000EF36EF366B376B376B376B376B376B37EA
:100100006B376B3745374E375737653769370E2EA4
:10011000172E1B2E212E2B2E352E3F2E6B37532EB6
:100120005D2E662E6F2E832E892EB42ECC2EE42EBD
:10013000052F6B370D2F132F2E2F6B37462F6B3755
:100140006B376B376B37EA3045316B376B376B3753
:100150006B376B37A031A931B231BB31C431CD31EE
:10016000DF31D6316B376B376B376B376B376B37AC
:10017000E831492EF33101326B370F322032313200
:100180006B376B376B376B376B376B376B37762F5C
:100190007A2F7E2F593081306E2F722FC99CCE9CC2
:1001A000D39CDD9CE79C609DF19CF99C019D0B9D7F
:1001B000159D1F9D2E9D389D609D429D4C9D569D79
:1001C000CFC7D2C7C1C7C5C7CBC709C8D6C7DAC74B
:1001D000E0C7E4C7E8C7EEC7F2C7F6C709C8FCC75F
:1001E00000C804C8084AD73B3BCE016E84BCBFFDA3
:1001F000C12F3D6C74319ABD56833DDA3D00C77FF7
:1002000011BED9E4BB4C3E916BAAAABE000000808F
:100210003F05A84CCDB2D44EB93836A9020C50B91E
:10022000918688083CA6AAAA2ABE000000803F004A
:100230004E414E494E495459494E46CDCCCC3D0ACB
:10024000D7233C17B7D13877CC2B329595E6241FAE
:10025000B14F0A000020410000C84200401C462067
:10026000BCBE4CCA1B0E5AAEC59D7400407A10F33A
:100270005A00A0724E18090010A5D4E80000E876D4
:1002800048170000E40B54020000CA9A3B0000002B
:10029000E1F505000080969800000040420F000044
:1002A00000A08601000000102700000000E8030005
:1002B0000000006400000000000A000000000001CF
:1002C00000000000002C76D888DC674F0823DFC1CF
:1002D000DFAE59E1B1B796E5E3E453C63AE651998A
:1002E0007696E8E6C28426EB898C9B62ED407C6FB3
:1002F000FCEFBC9C9F40F2BAA56FA5F490055A2A6A
:10030000F75C936B6CF9676DC11BFCE0E40D47FE75
:10031000F520E6B500D0ED902E030094357705006A
:1003200080841E080000204E0A000000C80C3333F1
:1003300033330F986E12831141EF8D2114893BE600
:100340005516CFFEE6DB18D1844B381BF77C1D9089
:100350001DA4BBE424203284725E228100C9F124F2
:10036000ECA1E53D27434F4D4D554E49434154497E
:100370004F4E0044525952554E004552524F52531F
:1003800000494E464F004543484F0047322F473300
:100390002062616420706172616D65746572730AB8
:1003A00000205A3A200020593A2000426564205823
:1003B0003A20004D65736820706F696E7420636128
:1003C0006E6E6F74206265207265736F6C76656403
:1003D0000A00456E642066696C65206C6973740A56
:1003E00000426567696E2066696C65206C6973748C
:1003F0000A005344207072696E74696E67206279D6
:10040000746520004E6F74205344207072696E74BE
:10041000696E670A002569730025696D2025697377
:10042000002569682025696D2025697300256964A8
:10043000202569682025696D202569730025697963
:1004400020256964202569682025696D2025697348
:10045000005072696E742074696D653A20008603DD
:1004600081037A03730365036F6666004445425552
:10047000473A004B494C4C45442E20004D31313316
:100480002053006F6B004361703A454D455247451C
:100490004E43595F5041525345523A300A0043612E
:1004A000703A434153455F4C494748545F42524973
:1004B0004748544E4553533A300A004361703A540A
:1004C0004F47474C455F4C49474854533A300A0020
:1004D0004361703A534F4654574152455F504F570E
:1004E00045523A300A004361703A4C4556454C49F2
:1004F0004E475F444154413A310A004361703A5AD1
:100500005F50524F42453A310A004361703A4155BB
:10051000544F4C4556454C3A310A004361703A50AD
:1005200052494E545F4A4F423A310A004361703A91
:1005300050524F47524553533A300A004361703A84
:100540004155544F5245504F52545F54454D503AC7
:10055000310A004361703A454550524F4D3A310AD5
:10056000004649524D574152455F4E414D453A4D27
:1005700061726C696E20312E312E342028476974E7
:100580006875622920534F555243455F434F444598
:100590005F55524C3A68747470733A2F2F676974C0
:1005A0006875622E636F6D2F4D61726C696E46695E
:1005B000726D776172652F4D61726C696E20505259
:1005C0004F544F434F4C5F56455253494F4E3A316B
:1005D0002E30204D414348494E455F545950453ACD
:1005E0004933504C55532045585452554445525F59
:1005F000434F554E543A3120555549443A6365644A
:1006000065326132662D343161322D343734382D04
:10061000396231322D6335356336326633363766AB
:10062000660A002F2F200053657474696E6720548A
:10063000726176656C20416363656C657261746993
:100640006F6E3A200053657474696E67205265744A
:100650007261637420416363656C65726174696F74
:100660006E3A200053657474696E67205072696E2B
:100670007420416363656C65726174696F6E3A20C2
:100680000053657474696E67205072696E742061DE
:100690006E642054726176656C20416363656C659D
:1006A000726174696F6E3A2000205A002059005818
:1006B0000020204D61783A2000205A00205900582F
:1006C0000020204D696E3A20004F6E20004F666674
:1006D00000536F667420656E6473746F70733A2094
:1006E0000000013D3E3C36FF40410218FF434542B9
:1006F00006FFFFFF0305FFFFFF3A3B39FFFF0344FF
:1007000004FF37FFFFFFFFFFFF206F7574206F6648
:100710002072616E67650A00536572766F20003A39
:10072000200020536572766F200020643A00206913
:100730003A0020703A0020643A0020693A002070A4
:100740003A00426564204C6576656C696E672000EE
:100750004661696C656420746F20656E61626C65CA
:1007600020426564204C6576656C696E670A004DB1
:1007700065736820706F696E742063616E6E6F744C
:10078000206265207265736F6C7665640A004D3473
:10079000323120696E636F727265637420706172AA
:1007A000616D657465722075736167650A0000008C
:1007B00000000000000000000000546F6F20666120
:1007C000722066726F6D207265666572656E636514
:1007D00020706F696E740A00204A616E20313320E8
:1007E000323032302031363A32323A3230006465BB
:1007F00076656C6F00706572202D592E00532E5A4D
:100800002E0061626C5F656E61626C65640061629E
:100810006C5F64697361626C65003A20007A5F6D99
:10082000696E3A20202D3230207A5F6D61783A204F
:10083000203230005A204F666673657420004E6F78
:100840002063617365206C696768740A00556E6B7C
:100850006E6F776E20636F6D6D616E643A2022005B
:10086000207A3A0020793A00783A005344206361B4
:1008700072642072656D6F7665642E005344206348
:1008800061726420696E7365727465642E005461D0
:10089000726765742066696C65206F70656E20668E
:1008A00061696C2E0052656672657368206F6B2EED
:1008B0000A007A70726F62655F7A6F66667365743C
:1008C00020636F6D6669726D3A007A70726F62654F
:1008D0005F7A6F66667365743A000A4C6576656C7C
:1008E000696E6720697320696E2070726F67726528
:1008F00073732E004D35303000473238004732399F
:1009000000473238000A4C6576656C696E6720696D
:100910007320696E2070726F67726573732E004D5D
:10092000393939206F6B2E0A004732382058302071
:10093000593000473238205A300047323820593079
:10094000004732382058300047323800556E6B6E01
:100950006F776E2E004D35303000656E71756575A0
:1009600065696E672022004B494C4C45442E20009F
:100970005072696E7465722073746F707065642054
:1009800064756520746F206572726F72732E2046D5
:10099000697820746865206572726F7220616E6478
:1009A00020757365204D39393920746F2072657355
:1009B000746172742E202854656D7065726174754F
:1009C00072652069732072657365742E2053657497
:1009D0002069742061667465722072657374617237
:1009E00074696E67290A004E6F204C696E65204E4F
:1009F000756D626572207769746820636865636BE2
:100A000073756D2C204C617374204C696E653A20AF
:100A1000004E6F20436865636B73756D2077697452
:100A200068206C696E65206E756D6265722C204C55
:100A3000617374204C696E653A2000636865636B6E
:100A400073756D206D69736D617463682C204C61E2
:100A50007374204C696E653A20004C696E65204EB7
:100A6000756D626572206973206E6F74204C6173BE
:100A700074204C696E65204E756D6265722B312C49
:100A8000204C617374204C696E653A20004D313101
:100A900030004D3331004D383420582059205A2031
:100AA000450053442072656164206572726F720A5A
:100AB00000446F6E65207072696E74696E6720669F
:100AC000696C650A0020496E76616C6964206578FE
:100AD0007472756465722000000000000000000060
:100AE0000000000000009643000096430000C84349
:100AF00048617264636F6465642044656661756C07
:100B0000742053657474696E6773204C6F616465FB
:100B1000640A00F4010000F401000064000000F425
:100B200001000000009643000096430000A0400032
:100B300000C8410000A2420000A2420040C8439AFF
:100B400099BC4220204D383531205A005A2D507220
:100B50006F6265204F666673657420286D6D293A53
:100B60000A0020440020490020204D33303420501A
:100B70000020440020490020204D33303120500017
:100B80005049442073657474696E67733A0A002093
:100B9000460020420020480020204D3134352053AB
:100BA000004D6174657269616C206865617475706F
:100BB00020706172616D65746572733A0A0020205D
:100BC0004D3432302053004175746F2042656420EB
:100BD0004C6576656C696E673A0A00205A002059A8
:100BE0000020204D323036205800486F6D65206F50
:100BF00066667365743A0A00204500205A00205941
:100C00000020580020420020540020204D32303572
:100C1000205300416476616E6365643A20533C6DF5
:100C2000696E5F66656564726174653E20543C6DF3
:100C3000696E5F74726176656C5F6665656472612A
:100C400074653E20423C6D696E5F7365676D656ECD
:100C5000745F74696D655F6D733E20583C6D61789B
:100C60005F78795F6A65726B3E205A3C6D61785F90
:100C70007A5F6A65726B3E20453C6D61785F655FA7
:100C80006A65726B3E0A0020540020520020204DFD
:100C9000323034205000416363656C657261746961
:100CA0006F6E2028756E6974732F7332293A205045
:100CB0003C7072696E745F616363656C3E20523C88
:100CC000726574726163745F616363656C3E205426
:100CD0003C74726176656C5F616363656C3E0A00AB
:100CE000204500205A0020590020204D323031206C
:100CF00058004D6178696D756D20416363656C6561
:100D0000726174696F6E2028756E6974732F733207
:100D1000293A0A00204500205A0020590020204D81
:100D20003230332058004D6178696D756D206665ED
:100D3000656472617465732028756E6974732F73AE
:100D4000293A0A00204500205A0020590020204D51
:100D500039322058005374657073207065722075A5
:100D60006E69743A0A0020204D3230302044300A37
:100D70000020204D323030204400204469736162ED
:100D80006C65640A0046696C616D656E74207365FC
:100D90007474696E67733A0020204D3134392043F2
:100DA000203B20556E69747320696E2043656C7317
:100DB0006975730A002020473231202020203B2013
:100DC000556E69747320696E206D6D0A007A5F6DCF
:100DD000696E3A2000795F6D696E3A2000785F6D28
:100DE000696E3A20005265706F7274696E67206593
:100DF0006E6473746F70207374617475730A002469
:100E0000F4D43050C38E20C2A24017828B701112CE
:100E10007A910D816CD90AA861E108C7586607610B
:100E20005143061E4B5D05C145A7041A4111040933
:100E30003D9803713931034036DB0265339102D4AA
:100E4000305402802E1D02632CEE01752AC501B0BC
:100E500028A001102781018F2564012B244B01E07C
:100E6000223401AC211F018D200D01801FFC008464
:100E70001EED00971DDF00B81CD200E61BC6002047
:100E80001BBC00641AB200B219A8000A19A0006ABB
:100E9000189900D117910040178B00B516840031C6
:100EA000167E00B31579003A157300C7146F005809
:100EB000146A00EE1366008813630025135E00C7F2
:100EC000125B006C12570015125400C111510070D2
:100ED000114F0021114B00D61049008D10470046DC
:100EE00010440002104200C00F4000800F3E00423C
:100EF0000F3C00060F3B00CB0E3800930E37005C12
:100F00000E3500270E3400F30D3200C10D31009074
:100F10000D3000600D2E00320D2D00050D2C00D976
:100F20000C2B00AE0C2900850C29005C0C27003529
:100F30000C27000E0C2600E80B2400C40B2400A094
:100F40000B23007D0B23005A0B2100390B210018C5
:100F50000B2000F80A1F00D90A1E00BB0A1E009DC4
:100F60000A1D00800A1D00630A1C00470A1B002C92
:100F70000A1B00110A1A00F7091A00DD091900C43A
:100F8000091900AB091900920917007B09180063C1
:100F90000917004C09160036091600200916000A28
:100FA000091500F5081500E0081400CC081400B875
:100FB000081400A4081400900813007D0812006BA8
:100FC00008130058081200460812003408110023C4
:100FD0000811001208110001081100F0071000E0CC
:100FE000071000D0071000C0071000B0070F00A1C5
:100FF00007100091070E0083070F0074070F0065AC
:10100000070E0057070E0049070E003B070D002E84
:10101000070E0020070D0013070D0006070D00F94D
:10102000060C00ED060D00E0060C00D4060C00C80E
:10103000060C00BC060C00B0060C00A4060B0099C0
:10104000060C008D060B0082060B0077060B006C69
:10105000060B0061060A0057060B004C060A004208
:10106000060A0038060A002E060A0024060A001A9C
:10107000060A001006090007060A00FD050900F42B
:10108000050900EB050900E2050900D9050900D0B2
:10109000050900C7050900BE050900B5050800AD32
:1010A000050800A50509009C050800940508008CAA
:1010B000050800840508007C050800740508006C1C
:1010C000050700650508005D050700560508004E88
:1010D00005070047050700400508003805070031EF
:1010E0000507002A050700230507001C0506001652
:1010F0000507000F0507000805060002050700FBAD
:10110000040600F5040700EE040600E8040600E209
:10111000040700DB040600D5040600CF040600C95E
:10112000040600C3040600BD040600B7040600B1AF
:10113000040500AC040600A6040600A00405009BFC
:1011400004060095040500900406008A0405008545
:10115000040500800406007A04050075040500708B
:101160000405006B04050066040500610405005CCD
:1011700004050057040500520405004D040500480D
:10118000040500430405003E0404003A040500354C
:10119000040500300404002C040500270404002387
:1011A0000405001E0404001A0404001604050011BE
:1011B0000404000D040400090405000404040000F4
:1011C000040400FC030400F8030400F4030400F02A
:1011D000030400EC030400E8030400E4030400E05B
:1011E000030400DC030400D8030400D4030400D08B
:1011F000030400CC030400C8030300C50303002458
:10120000F404D9201BC40C5C0E9804C4095F026569
:10121000077101F405F900FB04B30048048700C11D
:101220000369005803550003034500BE023A0084D9
:1012300002310053022A002902250004022000E4A2
:10124000011C00C8011900AF0117009801140084A7
:10125000011300710110006101100051010E0043E3
:10126000010D0036010B002B010B0020010B0015B6
:101270000109000C01090003010800FB000800F34C
:10128000000800EB000700E4000600DE000600D8BE
:10129000000600D2000600CC000500C7000500C211
:1012A000000500BD000400B9000400B5000400B151
:1012B000000400AD000400A9000400A5000300A282
:1012C0000003009F0004009B0003009800030095AA
:1012D00000020093000300900003008D0002008BC9
:1012E00000030088000200860002008400030081E1
:1012F0000002007F0002007D0002007B00020079F6
:101300000002007700010076000200740002007203
:10131000000100710002006F0002006D0001006C0E
:101320000002006A00010069000200670001006617
:10133000000100650001006400020062000100611C
:10134000000100600001005F0002005D0001005C20
:101350000001005B0001005A000100590001005823
:101360000001005700010056000100550001005423
:101370000001005300000053000100520001005121
:10138000000100500001004F0001004E0000004E1F
:101390000001004D0001004C0001004B0000004B1B
:1013A0000001004A00010049000100480000004817
:1013B0000001004700010046000000460001004512
:1013C000000000450001004400010043000000430C
:1013D0000001004200000042000100410000004105
:1013E000000100400001003F0000003F0001003EFE
:1013F0000000003E0001003D0000003D0001003CF7
:101400000000003C0000003C0001003B0000003BED
:101410000001003A0000003A0001003900000039E4
:1014200000010038000000380000003800010037DB
:1014300000000037000100360000003600000036D2
:1014400000010035000000350000003500010034C7
:1014500000000034000000340001003300000033BD
:1014600000000033000100320000003200000032B2
:1014700000010031000000310000003100010030A7
:1014800000000030000000300001002F0000002F9D
:101490000000002F0000002F0001002E0000002E91
:1014A0000000002E0001002D0000002D0000002D86
:1014B0000000002D0001002C0000002C0000002C7A
:1014C0000000002C0001002B0000002B0000002B6E
:1014D0000000002B0001002A0000002A0000002A62
:1014E0000000002A00010029000000290000002956
:1014F0000000002900000029000100280000002849
:10150000000000280000002800000028000100273B
:10151000000000270000002700000027000000272F
:101520000001002600000026000000260000002622
:101530000000002600010025000000250000002515
:101540000000002500000025000000250001002407
:1015500000000024000000240000002400000024FB
:1015600000010023000000230000002300000023EE
:1015700000000023000000230000002300010022DF
:1015800000000022000000220000002200000022D3
:1015900000000022000100210000002100000021C5
:1015A00000000021000000210000002100000021B7
:1015B00000010020000000200000002000000020AA
:1015C000000000200000002000000020000000209B
:1015D0000001001F0000001F0000001F0000001F8E
:1015E0000000001F0000001F0000001F0001001E7F
:1015F0000000001E0000001E0000001E0000004D44
:10160000383420582059205A204500426C746F7598
:101610006368206572726F722E0053544F502063BE
:10162000616C6C65642062656361757365206F66CB
:1016300020424C546F756368206572726F72202D62
:1016400020726573746172742077697468204D39F3
:1016500039390A00426C746F756368206572726F65
:10166000722E0053544F502063616C6C656420628D
:10167000656361757365206F6620424C546F7563B6
:1016800068206572726F72202D20726573746172AA
:10169000742077697468204D3939390A0042696CC1
:1016A000696E656172204C6576656C696E6720476E
:1016B0007269643A0A0020706F736974696F6E20F2
:1016C0006F7574206F662072616E67652E0A003F29
:1016D00050726F626520002066697273740A005A46
:1016E0000059005800486F6D6520004D617274729A
:1016F00069782073617665206F6B2E0A0052756ED3
:101700006E696E6720696E204452592D52554E20E5
:101710006D6F64650A00473239204175746F20424D
:101720006564204C6576656C696E670A00284229FD
:1017300061636B00284629726F6E74002852296914
:1017400067687400284C29656674003F285629652F
:1017500072626F7365206C6576656C2069732069B1
:101760006D706C61757369626C652028302D342949
:101770002E0A00426164205A2076616C75650A0069
:101780004E6F2062696C696E656172206772696470
:101790000A004469666665723A200046726F6D53AE
:1017A00074703A00537465707065723A00556E4CEF
:1017B0006576656C3A004C6576656C65643A0055F3
:1017C0006E4C6576656C3A004C6576656C65643A7E
:1017D000005261773A20202020000A4C6F6769632D
:1017E000616C3A004B64200023646566696E652075
:1017F0002044454641554C545F004B69200023640A
:101800006566696E65202044454641554C545F002D
:101810004B70200023646566696E65202044454650
:1018200041554C545F00504944204175746F7475A4
:101830006E652066696E69736865642120507574F1
:1018400020746865206C617374204B702C204B6988
:1018500020616E64204B6420636F6E7374616E74DC
:10186000732066726F6D2062656C6F7720696E748D
:101870006F20436F6E66696775726174696F6E2E53
:10188000680A00504944204175746F74756E652074
:101890006661696C6564212074696D656F7574009B
:1018A000504944204175746F74756E652066616996
:1018B0006C6564212074696D656F75740A00504908
:1018C00044204175746F74756E65206661696C653E
:1018D00064212054656D7065726174757265207441
:1018E0006F6F206869676800504944204175746FC4
:1018F00074756E65206661696C6564212054656D40
:10190000706572617475726520746F6F20686967A5
:10191000680A00204B643A2000204B693A200020DE
:101920004B703A20000A20436C6173736963205046
:101930004944200A002054753A2000204B753A2073
:1019400000206D61783A2000206D696E3A200020F9
:10195000643A200020626961733A20005041555377
:1019600045205052494E5420444F4E450A00455898
:1019700045204C434420494E534552542046494C3F
:10198000414D454E54320A00455845204C434420B1
:10199000494E534552542046494C414D454E5431D1
:1019A0000A002020202020202046696C616D656E91
:1019B000742072756E6F757434210A496E73657286
:1019C000742066696C616D656E7420616E64207050
:1019D0007265737320627574746F6E20746F206308
:1019E0006F6E74696E75652E0A2057616974696E31
:1019F0006720666F72206368616E67696E67206634
:101A0000696C616D656E742E0020202020202020DE
:101A100046696C616D656E742072756E6F75743396
:101A2000210A5761697420666F722066696C616D66
:101A3000656E7420756E6C6F61642E00202020200E
:101A400020202046696C616D656E742072756E6F22
:101A5000757432210A5761697420666F722073743D
:101A6000617274206F662066696C616D656E7420AA
:101A70006368616E67652E005741495420464F5296
:101A80002052454C4F414420444F4E450A002020EF
:101A9000202020202046696C616D656E742072756F
:101AA0006E6F757436210A496E73657274206669AB
:101AB0006C616D656E7420616E6420707265737305
:101AC00020627574746F6E20746F20636F6E74691A
:101AD0006E75652E0A2057616974696E6720666F9E
:101AE00072206368616E67696E672066696C616DFC
:101AF000656E742E002020202020202046696C6115
:101B00006D656E742072756E6F757435210A546838
:101B100065206E6F7A7A6C652068617320636F6FE1
:101B20006C20646F776E2C707265737320627574AD
:101B3000746F6E20746F20726568656174207468BC
:101B400065206E6F7A7A6C652E00455845205741A6
:101B5000495420464F522046494C414D454E542051
:101B600052454C4F41440A0020202046696C616D6B
:101B7000656E742072756E6F75743131210A57610C
:101B8000697420666F72207072696E7420746F20A1
:101B9000726573756D652E004348414E4745204F71
:101BA0005054494F4E533A002020202020202046F8
:101BB000696C616D656E742072756E6F7574392114
:101BC0000A5761697420666F722066696C616D6581
:101BD0006E7420657874727564652E0045584520D2
:101BE000524553554D45205741495420574149547A
:101BF00020574149540A00202020202020204669F7
:101C00006C616D656E742072756E6F757438210A23
:101C10005761697420666F722066696C616D656ECC
:101C200074206C6F61642E0020202020202020462C
:101C3000696C616D656E742072756E6F7574372195
:101C40000A496E736572742066696C616D656E74A5
:101C500020616E6420707265737320627574746F96
:101C60006E20746F20636F6E74696E75652E0A2026
:101C700057616974696E6720666F72206368616E70
:101C800067696E672066696C616D656E742E0045CC
:101C9000584520524553554D45205052494E540AFF
:101CA000005072696E7465722068616C7465642E90
:101CB000206B696C6C28292063616C6C6564210A57
:101CC000005072696E7465722073746F7070656411
:101CD0002064756520746F206572726F72732E2098
:101CE00046697820746865206572726F7220616E33
:101CF0006420757365204D39393920746F20726501
:101D000073746172742E202854656D7065726174ED
:101D10007572652069732072657365742E20536532
:101D200074206974206166746572207265737461D1
:101D30007274696E67290A005361766520656E7654
:101D400069726F6E6D656E74204F4B2E2E2E005390
:101D500061766520656E7669726F6E6D656E742052
:101D60004F4B2E2E2E00506F776572206272656188
:101D70006B210A00506F77657220627265616B217A
:101D800000FFFFFF7C3C3E5E2B3D3F2F5B5D3B2C0D
:101D90002A225C002020506C616E6E65724275666E
:101DA00066657242797465733A20002046726565F3
:101DB000204D656D6F72793A2000436F6D70696CCC
:101DC00065643A204A616E20313320323032300A65
:101DD00000207C20417574686F723A20286E6F6E07
:101DE000652C2064656661756C7420636F6E66692E
:101DF00067290A00323031372D30372D3034203109
:101E0000323A303000204C61737420557064617434
:101E100065643A2000312E312E340A004D61726C17
:101E2000696E0020536F6674776172652052657326
:101E300065740A00205761746368646F6720526597
:101E40007365740A002042726F776E206F7574207C
:101E500052657365740A002045787465726E616C12
:101E60002052657365740A00506F77657255700A69
:101E70000073746172740A006572726F72207772F7
:101E80006974696E6720746F2066696C650A00204A
:101E90005A3A0020593A0020583A00656E6473742B
:101EA0006F7073206869743A200053544F5020704B
:101EB00072696E74696E670A004D6F76652061778E
:101EC0006179204F4B2E0A004D6F76652061776156
:101ED00079205820592E0A004D6F76652061776170
:101EE0007920582C592E2E2E0053797374656D204D
:101EF00073746F7020666F722073687574646F7787
:101F00006E2E00446F6E6520736176696E67206681
:101F1000696C652E0A004D32390057726974696E1A
:101F20006720746F2066696C653A20006F70656E7B
:101F3000206661696C65642C2046696C653A2000F6
:101F40006F70656E206661696C65642C2046696CF3
:101F5000653A200046696C652073656C656374653D
:101F6000640A002053697A653A200046696C65204E
:101F70006F70656E65643A20006F70656E206661F3
:101F8000696C65642C2046696C653A20002066699E
:101F90006C653A20004E6F7720002220706F73002E
:101FA0002220706172656E743A2200535542524F7E
:101FB0005554494E452043414C4C2074617267652D
:101FC000743A22004B494C4C45442E2000547279FF
:101FD000696E6720746F2063616C6C207375622D6D
:101FE00067636F64652066696C65732077697468E0
:101FF00020746F6F206D616E79206C6576656C73EF
:102000002E00747279696E6720746F2063616C6C46
:10201000207375622D67636F64652066696C6573F4
:10202000207769746820746F6F206D616E79206C01
:102030006576656C732E204D4158206C6576656C15
:102040002069733A0041637469766520457874723B
:10205000756465723A20004D31313033206F6B2E3C
:102060000A0053442072656164206572726F720ABF
:1020700000206C653A00206C7A3A00206C793A00B6
:102080006C783A00206C653A00206C7A3A00206C3B
:10209000793A006C783A00206C653A00206C7A3A04
:1020A00000206C793A006C783A006D6F7665207A82
:1020B000206178697320616E64206520617869739E
:1020C0002E0A00536420696E6974206661696C2170
:1020D00020536F2063616E277420726573756D6580
:1020E000207072696E742E00536420696E697420CA
:1020F0006661696C212E0A536F2063616E2774201C
:10210000726573756D65207072696E742E004D3145
:10211000313031206F6B2D2D005461726765742052
:1021200066696C65206F70656E206661696C2E0053
:102130004E6F207072696E74206E65656465642EE2
:10214000004361726420696E6974206661696C0085
:102150004D31313031206661696C20666F722063C9
:1021600061726420696E6974206661696C2E0A0070
:102170005072696E7420636F6E74696E7565206647
:10218000726F6D206C61737420627265616B2E0AD0
:10219000004E4F206E65656420746F20636F6E740F
:1021A000696E756520746F207072696E742E0A00F6
:1021B0004D31313032207374617475733A31204679
:1021C000696C653A004D3131303220737461747539
:1021D000733A300A00426564206865617420666164
:1021E000696C2E0A53797374656D2073746F702E49
:1021F0000A506C6561736520726573746172742036
:102200006D616368696E652E0045787472756465EA
:10221000722068656174206661696C2E0A53797357
:1022200074656D2073746F702E0A506C65617365F0
:102230002072657374617274206D616368696E6584
:102240002E006265640A002C2073797374656D201A
:1022500073746F7070656421204865617465725F86
:1022600049443A200048656174696E672066616977
:102270006C65640048656174696E67206661696CAD
:1022800065640048656174696E67206661696C65A4
:10229000642E0A53797374656D2073746F702E0009
:1022A00048656174696E67206661696C65640048A1
:1022B000656174696E67206661696C656400486574
:1022C0006174696E67206661696C65642E0A537972
:1022D0007374656D2073746F702E0070012C019003
:1022E000012701B0012201C0011D01F001180110F8
:1022F00002130130020E016002090190020401C0C4
:1023000002FF000003FA004003F5008003F000D054
:1023100003EB002004E6007004E100E004DC004070
:1023200005D700C005D2004006CD00D006C8008009
:1023300007C3003008BE00F008B900C009B400B0FF
:102340000AAF00B00BAA00D00CA500000EA00050F0
:102350000F9B00C01096005012910000148C00C01A
:10236000158700B0178200B0197D00D01B780000DF
:102370001E730040206E0090226900F0246400402B
:10238000275F0090295A00E02B5500102E500020A6
:10239000304B0010324600E033410090353C0010D5
:1023A00037370070383200A0392D00B03A2800A02D
:1023B0003B2300603C1E00103D1900903D140010AE
:1023C0003E0F00703E0A00C03E0500003F00004086
:1023D0003FFBFF803FF6FFC03FF1FF4572723A209E
:1023E0004D494E54454D5020424544004572723A85
:1023F000204D494E54454D50004D494E54454D5089
:1024000020747269676765726564004572723A206C
:102410004D415854454D5020424544004572723A52
:10242000204D415854454D50004D415854454D5054
:10243000207472696767657265640020202020201F
:1024400046696C616D656E742072756E6F7574315E
:10245000210A202020202048656174696E67206E63
:102460006F7A7A6C650A2020202020506C65617399
:102470006520776169742E2E2E0046696C65206494
:10248000656C657465643A0044656C6574696F6E6B
:10249000206661696C65642C2046696C653A200091
:1024A0006F70656E206661696C65642C2046696C8E
:1024B000653A200050726F746563746564205069DA
:1024C0006E0A00202F002042403A0020403A0020AF
:1024D000573A0020573A00205A3A0020593A002033
:1024E000436F756E7420583A0020453A00205A3ADE
:1024F0000020593A00583A00290A00206279746590
:10250000733B20637263200053657474696E677354
:102510002053746F726564202800202863616C6307
:10252000756C6174656429210A0020213D200045F5
:102530004550524F4D20435243206D69736D617475
:102540006368202D202873746F7265642920002928
:102550000A002062797465733B2063726320002057
:1025600073746F7265642073657474696E67732029
:10257000726574726965766564202800204D617209
:102580006C696E3D563037290A0028454550524F38
:102590004D3D00454550524F4D2076657273696F31
:1025A0006E206D69736D6174636820004D35303045
:1025B0000000007042000070420000204200000055
:1025C000004578747275646500526573756D6500B9
:1025D0006274643A0062693A00526573656E643AE7
:1025E00020006F6B00627573793A207061757365B6
:1025F0006420666F7220696E7075740A006275736C
:10260000793A2070617573656420666F7220757306
:1026100065720A00627573793A2070726F63657330
:1026200073696E670A004B494C4C45442E20004BA1
:10263000696C6C2063617573656420627920746FC6
:102640006F206D75636820696E61637469766520BB
:1026500074696D652E004B494C4C20636175736540
:102660006420627920746F6F206D75636820696ED5
:102670006163746976652074696D65202D206375CA
:102680007272656E7420636F6D6D616E643A2000C6
:102690004572726F722077726974696E6720746F09
:1026A00020454550524F4D210A0043616E6E6F74B4
:1026B000206F70656E2073756264697220004D3200
:1026C00034004D3233202573006175746F25692EF7
:1026D000670053442063617264206F6B0A006F705F
:1026E000656E526F6F74206661696C65640A00766E
:1026F0006F6C756D652E696E6974206661696C65B5
:10270000640A004572726F723A00534420696E6920
:1027100074206661696C0A006563686F3A0054480A
:1027200045524D414C2052554E4157415900546835
:1027300065726D616C2052756E6177617900000081
:102740002100240027002A002D0030003300010161
:102750000000040107010A010000220025002800F2
:102760002B002E0031003400020100000501080199
:102770000B01000020002300260029002C002F0060
:1027800032000001000003010601090105050505ED
:10279000070508080808020202020A0A08080404D9
:1027A0000404010101010101010103030303030307
:1027B0000303040707070C0C0C0C0C0C0C0C020296
:1027C000020206060606060606060B0B0B0B0B0B93
:1027D0000B0B010210202008081020401020408020
:1027E00002010201080402010102040810204080D5
:1027F0008040201008040201800402018040201063
:1028000008040201080402010102040810204080AB
:10281000010204081020408000000A0B02090C0D80
:102820000E08070304010000000000000000000083
:102830000000000000000000000000000000000098
:102840000000000012111000000000000000000055
:102850000000000000000000000000000000205AFE
:102860003A200020593A200042656420583A20005E
:10287000DDD3BDCD11241FBECFEFD1E2DEBFCDBF72
:1028800000E00CBF13E0A0E0B2E0EAE8F8EC01E001
:102890000BBF02C007900D92A23CB107D9F723E10C
:1028A000A2ECB3E001C01D92A939B207E1F714E12F
:1028B000C9E3D4E100E006C021970109802FFE01A1
:1028C0000E947EE3C833D10780E00807A9F70E9481
:1028D000DECD0C9434E40C9400002F923F924F9282
:1028E0005F926F927F928F929F92AF92BF92CF92A0
:1028F000DF92EF92FF920F931F93CF93DF93CDB7A9
:10290000DEB7CF55D1090FB6F894DEBF0FBECDBFED
:10291000E091F30B20E4E29FF0011124ED50F64F1B
:102920008081813091F4BF016F5F7F4F80E090E044
:10293000DB014D91BD019C012A50344FD9014C93CC
:10294000019684309105A1F708C01092F60B109201
:10295000F70B1092F80B1092F90B10828581181664
:1029600014F0809300028F010A5F1F4F8091FA0BD1
:1029700080FF2EC0E8E1F7E284917F01BFEFEB1A00
:10298000FB0A882321F00E94AA3EF701F5CF80912F
:1029900000020E94AA3E8AE00E94AA3EE8E1F7E215
:1029A00084917F012FEFE21AF20A811102C07801AF
:1029B00004C00E94AA3EF701F3CFD7018D917D019B
:1029C000882319F00E94AA3EF8CF8AE00E94AA3E0E
:1029D00081E090E09093BC0D8093BB0DC8010E94F4
:1029E0005647809138048D3409F4B6C7843511F404
:1029F0000C943F2B873421F0E8E1F7E20C94442B50
:102A00002090360430903704BDE12B16310409F4D0
:102A1000CCC5ECF4F4E02F1631044CF422E022167D
:102A200031040CF05FC037FE51C00C945C2B34E0D5
:102A30002316310409F47BC54CE12416310411F04E
:102A40000C945C2B80E00E94615B0C945C2B5AE23E
:102A50002516310409F499C62CF59EE12916310496
:102A600009F4A7C5A2E22A16310411F00C945C2BDC
:102A70006091A60970E088E698E00E94BB586091DA
:102A8000A70970E084E698E00E94BB586091A8090D
:102A900070E080E698E00E94BB588AE00E94AA3E5F
:102AA0000C945C2BBBE52B16310409F408C6ECE54D
:102AB0002E16310409F408C6FAE52F16310411F078
:102AC0000C945C2B1092D8030C945C2B8091030225
:102AD000882311F40C945C2B0E9489590E9459B5EB
:102AE0000C945C2B80910302882311F40C945C2BD2
:102AF0000E94895982E50E94673E882309F436C105
:102B00000E94053E4B015C0120E030E0A9010E94DB
:102B1000EAD9882309F456C120916E1330916F13BE
:102B200040917013509171132CA73DA74EA75FA73A
:102B30008091721390917313A0917413B0917513D7
:102B400088AB99ABAAABBBAB20918E0930918F09B2
:102B5000409190095091910928AF39AF4AAF5BAFCE
:102B60008091920990919309A0919409B09195094F
:102B70008CAB9DABAEABBFAB6CA57DA58EA59FA569
:102B80000E94EAD981110DC02CA93DA94EA95FA9C7
:102B900068A979A98AA99BA90E94EAD9882309F47E
:102BA00011C111E092E02916310409F010E020E093
:102BB00030E0A901C501B4010E94EAD9881F882725
:102BC000881F181759F020E030E040E85FEB2896A6
:102BD0002CAF3DAF4EAF5FAF28970AC080E090E0CA
:102BE000A0E8BFE328968CAF9DAFAEAFBFAF2897EC
:102BF0002CA53DA54EA55FA568AD79AD8AAD9BAD71
:102C00000E947DE024966CAF7DAF8EAF9FAF24977E
:102C100028A939A94AA95BA96CA97DA98EA99FA950
:102C20000E947DE06B017C0124962CAD3DAD4EAD44
:102C30005FAD2497CA01B9010E944FDA2B013C0114
:102C4000A7019601C701B6010E944FDA9B01AC01B2
:102C5000C301B2010E947EE00E94EAE26CAF7DAF48
:102C60008EAF9FAF20E030E040E05FE30E944FDA9C
:102C70002B013C01A5019401C501B4010E944FDA6A
:102C80004B015C01A3019201C301B2010E944FDA22
:102C90009B01AC01C501B4010E947DE00E94EAE203
:102CA00028962CAD3DAD4EAD5FAD28970E944FDA12
:102CB0004B015C01C701B60190582CAD3DAD4EAD46
:102CC0005FAD0E945AE1A50194010E944FDA6B01A9
:102CD0007C0128AD39AD4AAD5BAD6CA57DA58EA557
:102CE0009FA50E947EE020E030E040E05FE30E948C
:102CF0004FDA9B01AC01C701B6010E947EE02CA512
:102D00003DA54EA55FA50E947DE06B017C012CA92D
:102D10003DA94EA95FA968A979A98AA99BA90E9482
:102D20007EE020E030E040E05FE30E944FDA2B01DC
:102D30003C012CAD3DAD4EAD5FAD24966CAD7DAD8F
:102D40008EAD9FAD24970E945AE1A50194010E9487
:102D50004FDA9B01AC01C301B2010E947EE028A9B9
:102D600039A94AA95BA90E947DE014C089E40E94A8
:102D7000673E882329F00E94053E6B017C0103C059
:102D8000C12CD12C76018AE40E94673E8823E9F0A9
:102D90000E94053E68AF79AF8AAF9BAF20E030E07C
:102DA000A901C701B6010E94EAD981111BC020E028
:102DB00030E0A90168AD79AD8AAD9BAD0E94EAD93A
:102DC000811110C0E3E0F7E29EC320E030E0A901EA
:102DD000C701B6010E94EAD98823A1F318AE19AE43
:102DE0001AAE1BAEA701960150582CA73DA74EA7BF
:102DF0005FA788AD99ADAAADBBADB05888AB99AB14
:102E0000AAABBBABCA01B9010E944FDA4B015C010E
:102E100028A939A94AA95BA9CA01B9010E944FDAB8
:102E20009B01AC01C501B4010E947EE00E94EAE270
:102E300064966CAF7DAF8EAF9FAF649720916E1399
:102E400030916F1340917013509171132CAB3DABC7
:102E50004EAB5FABA70196016CA97DA98EA99FA976
:102E60000E947EE028966CAF7DAF8EAF9FAF289713
:102E70008091721390917313A0917413B091751394
:102E80008CAF9DAFAEAFBFAF28AD39AD4AAD5BAD36
:102E9000BC01CD010E947EE068966CAF7DAF8EAF25
:102EA0009FAF689720918E0930918F0940919009CA
:102EB000509191092C962CAF3DAF4EAF5FAF2C9740
:102EC00028962CAD3DAD4EAD5FAD28972C966CADE0
:102ED0007DAD8EAD9FAD2C970E947DE06B017C0196
:102EE0008091920990919309A0919409B0919509CC
:102EF00060968CAF9DAFAEAFBFAF609768962CADBC
:102F00003DAD4EAD5FAD6897BC01CD010E947DE047
:102F10004B015C0120917613309177134091781327
:102F2000509179136C962CAF3DAF4EAF5FAF6C975D
:102F300060919609709197098091980990919909EB
:102F40000E947DE024966CAF7DAF8EAF9FAF24973B
:102F5000A70196016CA57DA58EA59FA50E944FDABD
:102F60002B013C01A501940168A979A98AA99BA913
:102F70000E944FDA9B01AC01C301B2010E947EE0C6
:102F80002B013C01A50194016CA57DA58EA59FA5F3
:102F90000E944FDA4B015C01A701960168A979A94B
:102FA0008AA99BA90E944FDA9B01AC01C501B4011B
:102FB0000E947DE0A30192010E94F1E06B017C017F
:102FC00020E030E0A9010E94EAD987FF0AC02BED7A
:102FD0003FE049EC50E4C701B6010E947EE06B017E
:102FE0007C0132E02316310451F42BED3FE049EC33
:102FF00050E4C701B6010E947DE06B017C0120E036
:1030000030E0A901C701B6010E94EAD9811124C0AC
:103010002C962CAD3DAD4EAD5FAD2C976CA97DA926
:103020008EA99FA90E94EAD9811116C060962CAD85
:103030003DAD4EAD5FAD60976CAD7DAD8EAD9FADDE
:103040000E94EAD9811108C00BEDC02E0FE0D02EEE
:1030500009ECE02E00E4F02EA701960164966CAD19
:103060007DAD8EAD9FAD64970E944FDA9B01AC01A0
:103070000E944FDA4B015C0124962CAD3DAD4EAD64
:103080005FAD2497CA01B9010E944FDA9B01AC01E0
:10309000C501B4010E947EE00E94EAE24B015C019E
:1030A0002FE632E143E85AE30E94EAD987FD24C2C1
:1030B000C501B4010E94F3E10E94C7E17DAF6CAF8E
:1030C000672B21F481E090E09DAF8CAF40907A13A4
:1030D00050907B1360907C1370907D13ACADBDADB0
:1030E000BD0180E090E00E94EED94B015C019B01A4
:1030F000AC01C701B6010E945AE16CAB7DAB8EAB4F
:103100009FABA501940124966CAD7DAD8EAD9FADB6
:1031100024970E945AE164966CAF7DAF8EAF9FAF4B
:103120006497A301920160919A0970919B09809123
:103130009C0990919D090E947DE0A50194010E9447
:103140005AE1A0966CAF7DAF8EAF9FAFA0972CA930
:103150003DA94EA95FA9CA01B9010E944FDA20E03A
:1031600030E040E05FE30E944FDA9B01AC0160E099
:1031700070E080E89FE30E947DE024966CAF7DAF15
:103180008EAF9FAF24976C962CAD3DAD4EAD5FAD2D
:103190006C9729873A874B875C874D865E866F865A
:1031A000788A6091310270913202072E000C880BF0
:1031B000990B0E94F0D920917B0230917C024091C2
:1031C0007D0250917E020E944FDA2AE037ED43E201
:1031D0005CE30E944FDA2C966CAF7DAF8EAF9FAF51
:1031E0002C970E940DCB9B01AC0128533F4F4F4FB2
:1031F0005F4F60962CAF3DAF4EAF5FAF60974CA472
:103200005DA46EA47FA422242394312C19E1D12E35
:103210004CAD5DAD4215530509F430C10E941D95BA
:103220000E940DCBDC01CB0160962CAD3DAD4EADC7
:103230005FAD6097821B930BA40BB50BB7FD11C05C
:103240000E940DCB9B01AC0128533F4F4F4F5F4F66
:1032500060962CAF3DAF4EAF5FAF609780E00E94AD
:1032600088B2DA94DD2009F441C028A939A94AA915
:103270005BA924966CAD7DAD8EAD9FAD24970E9469
:103280004FDA4B015C019201A3016CA97DA98EA9C3
:103290009FA90E944FDAA50194010E947EE07B0164
:1032A0008C019201A30124966CAD7DAD8EAD9FADD6
:1032B00024970E944FDA4B015C0128A939A94AA939
:1032C0005BA96CA97DA98EA99FA90E944FDA9B01D9
:1032D000AC01C501B4010E947DE02B013C01C70196
:1032E000D80188AB99ABAAABBBAB4DC0B10180E0B4
:1032F00090E00E94EED92CA93DA94EA95FA90E9499
:103300004FDA4B015C010E9457E16B017C01C50162
:10331000B4010E94E0E24B015C01A70196016CA59B
:103320007DA58EA59FA50E944FDA2B013C0128ADFB
:1033300039AD4AAD5BADC501B4010E944FDAA301BE
:1033400092010E947EE02B013C01A50194016CA535
:103350007DA58EA59FA50E944FDA4B015C0128AD8B
:1033600039AD4AAD5BADC701B6010E944FDA9B0192
:10337000AC01C501B4010E947DE068AB79AB8AABBA
:103380009BABA9E1DA2E9201A30128966CAD7DAD2D
:103390008EAD9FAD28970E947EE069837A838B83F0
:1033A0009C8328A939A94AA95BA968966CAD7DAD13
:1033B0008EAD9FAD68970E947EE06D837E838F8384
:1033C000988764962CAD3DAD4EAD5FAD6497698531
:1033D0007A858B859C850E947EE069877A878B87BA
:1033E0009C87A0962CAD3DAD4EAD5FADA0976D8591
:1033F0007E858F8598890E947EE06D877E878F8786
:10340000988B80914302882321F0CE0101960E947F
:10341000F972C0909E0D89819A81AB81BC8188A38D
:1034200099A3AAA3BBA38D819E81AF81B8858CA3EC
:103430009DA3AEA3BFA389859A85AB85BC8588A7CC
:1034400099A7AAA7BBA7CE0180960E94973E2C966B
:10345000ECACFDAC0EAD1FAD2C979E01235F3F4F32
:10346000AE01485D5F4FBE016C5D7F4FCE0180961F
:103470000E945F773FEF231A330ACACEC0909E0D99
:1034800080918E0990918F09A0919009B091910936
:1034900088A399A3AAA3BBA38091920990919309B1
:1034A000A0919409B09195098CA39DA3AEA3BFA34D
:1034B0008091960990919709A0919809B0919909E6
:1034C00088A799A7AAA7BBA7CE0180960E94973E7E
:1034D0002C96ECACFDAC0EAD1FAD2C972AE939E073
:1034E000AE01485D5F4FBE016C5D7F4FCE0180969F
:1034F0000E945F770E94E53A0E949F3E0C945C2BED
:103500000E94AA3EF80184918F010F5F1F4F811125
:10351000F7CFEBE8F3E084918F010F5F1F4F882313
:1035200011F40C945C2B0E94AA3EF801F4CF80E5C4
:103530000E94673E882329F00E94C53D6B017C01F3
:1035400003C0C12CD12C760183E50E94673E8823FD
:1035500061F00E94053E20E030E04AE754E40E941A
:103560004FDA0E94C7E16B017C010E94D9980E944A
:103570009F3E8091C30D9091C40DA091C50DB09157
:10358000C60DC80ED91EEA1EFB1E0E940DCBDC0123
:10359000CB018C199D09AE09BF09B7FD02C00C947F
:1035A0005C2B80E00E9488B2F0CF0E94F35C0C9408
:1035B0005C2BC0906E13D0906F13E0907013F0905E
:1035C000711388E50E94673E811109C020E030E058
:1035D00040ED51E4C701B6010E947EE002C00E94A6
:1035E000053E68A379A38AA39BA3C0907213D090D1
:1035F0007313E0907413F090751389E50E94673E91
:10360000811109C020E030E040ED51E4C701B6016E
:103610000E947EE002C00E94053E6B017C0169832E
:103620007A838B839C8320917E1330917F1340910A
:1036300080135091811368A179A18AA19BA10E9456
:103640007DE04B015C0124EF3DEF4FEC51E40E9423
:10365000A4E287FF02C00C945C2B21E230E046E933
:1036600053E4C501B4010E94EAD9181614F40C946D
:103670005C2B2091821330918313409184135091DD
:103680008513C701B6010E947DE06B017C0124EF28
:103690003DEF4FEC51E40E94A4E287FF02C00C947E
:1036A0005C2B21E230E046E953E4C701B6010E94F9
:1036B000EAD9181614F40C945C2B0C94632B81E05B
:1036C0008093D8030C945C2B85E40E94673EB82E4F
:1036D000811102C00E94D99875E8872E72E0972E5A
:1036E000EEE6CE2EE3E1DE2EF2ECEF2EF3E0FF2E3F
:1036F00000E010E0A12CD4018D914D010E94673EA5
:10370000882339F1F60140805180628073800E94E5
:10371000053ED6016D937D938D939C931397033053
:10372000C1F0A30192010E947DE09B01AC01F70171
:1037300060817181828193810E947EE0D7016D93C7
:103740007D938D939C931397C8010E94923CAA2469
:10375000A3940F5F1F4FB4E0CB0ED11CE4E0EE0E3C
:10376000F11C0430110539F6AA2019F00E947E3DA3
:1037700008C0BB2031F06AE773E183E090E00E946B
:10378000ED750E940D990C945C2B809103028823A7
:1037900011F40C945C2B89E40E94673E082F882367
:1037A00021F00E94D53DE62E01C0E12C8AE40E9462
:1037B000673E182F882321F00E94D53DF62E01C0C8
:1037C000F12C002319F0F2E0FE1528F0112389F006
:1037D00022E02F1570F4E3EBF3E084918F010F5F8B
:1037E0001F4F882311F40C945C2B0E94AA3EF80111
:1037F000F4CF0E94DB3A002341F12091270D309154
:10380000280D4E2D4203B001439F700D112480916D
:10381000230D9091240D680F791F072E000C880B43
:10382000990B0E94F0D920917E1330917F13409123
:103830008013509181130E947EE060938E097093F3
:103840008F098093900990939109112341F1209160
:10385000290D30912A0D5F2D5203B001539F700D39
:1038600011248091250D9091260D680F791F072E48
:10387000000C880B990B0E94F0D920918213309193
:10388000831340918413509185130E947EE06093CE
:10389000920970939309809394099093950980E518
:1038A0000E94383E8823A1F10E94F63D882381F1D1
:1038B0000023B1F020E030E040ED51E460918E094A
:1038C00070918F0980919009909191090E947DE0FB
:1038D00060938E0970938F0980939009909391095A
:1038E0001123B1F020E030E040ED51E46091920905
:1038F0007091930980919409909195090E947DE0BF
:103900006093920970939309809394099093950919
:1039100086E40E94673E8823D9F00E94053E6B0131
:103920007C0120E030E0A9010E94A4E2181684F492
:1039300020E030E040E752E4C701B6010E945AE1BE
:1039400060937B0270937C0280937D0290937E0251
:103950000E9459B50C945C2B8091360490913704E9
:103960008737910509F4B9C70CF0D0C08D349105A3
:1039700009F43DC40CF056C08931910509F4D1C257
:103980001CF58431910509F4DCC17CF48131910589
:1039900009F45EC22CF4029708F4D6C10C945C2B97
:1039A000429709F4F7C50C945C2B8631910509F414
:1039B00097C20CF491C28731910509F497C24897D8
:1039C00009F4A4C20C945C2B8F31910509F454C303
:1039D00094F48B31910509F4B8C20CF4A8C28C316F
:1039E000910509F4EFC24E9711F00C945C2B0E94E4
:1039F000E39D0C945C2B8A32910509F4F0C32CF4FE
:103A0000809709F4E9C20C945C2B8B34910509F47E
:103A1000EAC38C34910511F00C945C2B0E94F7865C
:103A20000C945C2B8B36910509F499C50CF049C0B8
:103A30008535910509F4E5C534F58235910509F41C
:103A4000A0C5BCF48135910511F00C945C2B0E944B
:103A5000A3910E94D9980E94F8B41092EB09109299
:103A6000EA0968EE73E080E090E00E946E750C94C5
:103A70005C2B8335910509F488C58435910509F4DB
:103A800089C50C945C2B8836910509F4B4C37CF489
:103A90008C35910511F00C945C2B35E8C32E32E087
:103AA000D32E46E8E42E4DE0F42E10E0C5C589364D
:103AB000910509F4C2C48A36910509F431C50C9404
:103AC0005C2B8037910509F471C484F48D3691051F
:103AD00009F4F7C40CF466C48E36910509F4AAC340
:103AE0008F36910509F4B9C30C945C2B823791058C
:103AF00009F421C60CF45EC48337910509F41EC194
:103B00008637910509F4B2C60C945C2B8336A1E08C
:103B10009A0709F40CC10CF06EC08D3C910509F4B4
:103B2000E5C754F58E3B910509F4E6C484F4893762
:103B3000910509F4DBC60CF4D3C68C38910509F461
:103B400066C48B39910509F495C40C945C2B893CAF
:103B5000910509F422C734F4883C910509F4CBC6D9
:103B60000C945C2B8B3C910509F43AC78C3C910575
:103B700009F452C70C945C2B823E910511F40C940D
:103B8000ED26F4F4833D910509F4D5C06CF48E3C28
:103B9000910511F00C945C2BA5E8EA2EA2E0FA2E18
:103BA00000E010E00C94E7258C3D910511F40C9495
:103BB000C7268D3D910511F40C94D4260C945C2BF2
:103BC0008D32E1E09E0711F40C94C1273CF488315A
:103BD000914011F40C9416270C945C2B8F3231E039
:103BE000930711F40C94DC288033914011F40C9469
:103BF0005F280C945C2B863F51E0950711F40C94E0
:103C0000462A0CF04AC0843AB1E09B0711F40C94A8
:103C1000E7283CF58139F1E09F0711F40C94DF2887
:103C20004CF48039914011F00C945C2B0E94D9988F
:103C30000C945C2B823941E0940711F40C94E32836
:103C40008A39914011F00C945C2B0E949E980E943E
:103C5000D99884E690E00E94DAB50E947E3D0C94EB
:103C60005C2B8C3AA1E09A0709F4C0C73CF4853A72
:103C7000914011F40C9440290C945C2B843FF1E0AA
:103C80009F0711F40C94432A853F914011F00C9446
:103C90005C2B0E94109F0C945C2B803A33E09307BE
:103CA00009F4DDC1ECF4883552E0950711F40C9469
:103CB000E92A3CF4873F914011F40C94492A0C9472
:103CC0005C2B8235E3E09E0711F40C94572A833570
:103CD000934011F00C945C2BE8E1F7E20C949A2AE3
:103CE0008E3424E0920711F40C94122B7CF4873E5E
:103CF00043E0940711F40C94022B8D34944011F09E
:103D00000C945C2B0E94538D0C945C2B8F34A4E09C
:103D10009A0711F40C94152B803B944011F00C94ED
:103D20005C2B00913404109135040C941C2BE3E0BF
:103D3000F7E20C94EF2AE8E1F7E292C7E1E6F5E05A
:103D40000AC5E1EEF3E088C0009134041091350417
:103D500080E50E94673E882361F00E94C53D6B01AB
:103D60007C01BB24B394672B682B692B31F4B12CF5
:103D700004C0B12CC12CD12C760183E50E94673E92
:103D8000882399F00E94053E20E030E04AE754E4A1
:103D90000E944FDA0E94C7E16B017C01B1100CC098
:103DA000672B682B692B41F435C0B11005C0011594
:103DB000110511F00C94B92B83E090E09093BC0DA9
:103DC0008093BB0D81E08093E7030E94D9980E9405
:103DD0009F3EC114D104E104F10471F18091C30D3F
:103DE0009091C40DA091C50DB091C60DC80ED91EFD
:103DF000EA1EFB1E0E940DCBDC01CB018C199D0934
:103E0000AE09BF09B7FF20C08091E70381110C9470
:103E1000D92B1AC00115110511F00C94B92B83E0B0
:103E200090E09093BC0D8093BB0D81E08093E703FD
:103E30000E94D9980E949F3E8091E703882321F039
:103E400080E00E9488B2F8CF1092E7030C945C2BBC
:103E50000E9408B50C945C2B84918F010F5F1F4F5B
:103E6000882321F00E94AA3EF801F6CF10925C133D
:103E700010925B1386E291E10E940E6F8BE1E6E205
:103E8000F1E1DE01159601900D928A95E1F780919E
:103E90002411909125119C838B8381EF92E09A836A
:103EA000898340E050E0BE016F5F7F4F82E693E080
:103EB0000E946BC2CE0101960E943A75E2EDF3E0DA
:103EC00084918F010F5F1F4F882311F40C945C2B9A
:103ED0000E94AA3EF801F4CF0E9426BF0C945C2BEE
:103EE0001092D6101092D7100C945C2B40E061E039
:103EF00080913404909135040E94638769ED70E1EC
:103F000089ED93E00E94E1E30C945C2B8091D71043
:103F1000882319F081E08093D6100E9433860C9498
:103F20005C2B1092D6100E94F7860C945C2B80912B
:103F3000D710882311F40C945C2B83E50E94673E14
:103F400081110C94DE2B0C945C2B8091D710811185
:103F500003C0E4E0F4E02AC0E2EFF3E084918F01D3
:103F60000F5F1F4F882321F00E94AA3EF801F6CF71
:103F70006091521370915313809154139091551383
:103F80004AE00E942E3F8FE20E94AA3E60914E13AB
:103F900070914F1380915013909151134AE00E94F9
:103FA0002E3F8AE00E94AA3E0C945C2B84918F01E4
:103FB0000F5F1F4F882311F40C945C2B0E94AA3EC4
:103FC000F801F4CF40E060E0809134049091350432
:103FD0000E9463870C945C2B8091D61081110E9403
:103FE000D998E0903404F090350480E50E94383E82
:103FF000182F882319F00E94F63D182F8091D710B2
:10400000882311F40C945C2B412F61E0C7010E94BE
:10401000638783E50E94673E882381F00E94D53D37
:10402000AB01BC014093521350935313609354134C
:104030007093551387E091E10E94ECBC69ED70E14B
:1040400089ED93E00E94E1E38091D710882319F075
:1040500081E08093D61011110C945C2B5ECF80917F
:1040600034049091350421E02093D51040E060E0C5
:104070000E9463870C945C2B0E94A7C17B018C017A
:1040800020E831E541E050E00E9426E0C9016DE6FC
:1040900071E00E9457E34B015C01C801B70120E1C8
:1040A0003EE040E050E00E9426E0CA01B90128E16C
:1040B00030E040E050E00E9426E0762E672EC62ECB
:1040C000D72E6CE3262E312C412C512CC801B70180
:1040D000A20191010E9426E0F62EE72ECA01B90145
:1040E000A20191010E9426E0CB018E010F5F1F4FBC
:1040F00081149104D1F0EF92FF927F936F936F92AE
:104100007F92BF92AF929F928F928DE394E09F93A4
:104110008F931F930F930E94BCD90FB6F894DEBF04
:104120000FBECDBFE8E1F7E245C0A114B10489F0AC
:10413000EF92FF927F936F936F927F92BF92AF92B5
:104140008DE294E09F938F931F930F930E94BCD9AD
:10415000E4CFCD2879F0EF92FF927F936F936F9227
:104160007F9281E294E09F938F931F930F930E941D
:10417000BCD9D3CF892B69F0EF92FF927F936F93D5
:1041800089E194E09F938F931F930F930E94BCD972
:10419000C4CFEF92FF9285E194E09F938F931F939A
:1041A0000F930E94BCD90F900F900F900F900F901B
:1041B0000F90B8CF84917F019FEFE91AF90A882305
:1041C00021F00E94AA3EF701F5CFB80181E594E005
:1041D0000E94D4588AE00E94AA3E0C945C2B0E9454
:1041E0005D9C0C945C2B0E9433860C945C2B0E948B
:1041F0002AC50C945C2B88E690E00E94993F8111BF
:104200000C945C2B8091FA0B83FF02C00C945C2B06
:1042100083E50E94673E882349F00E94053E0E9484
:10422000C2E1CB010E94CBA70E94053E0E9463CB56
:104230000C945C2B8EE40E94673E882311F40C944E
:104240005C2B0E94D53D60938A0970938B09809303
:104250008C0990938D090C945C2B83E50E94673E3A
:10426000882319F00E94E53D01C080E08093FA0B9D
:10427000E8E1F7E284918F010F5F1F4F811103C0C6
:10428000ECE6F4E004C00E94AA3EF801F3CF84916A
:104290008F010F5F1F4F882321F00E94AA3EF80173
:1042A000F6CF8091FA0B811103C0E8E6F4E034C048
:1042B0005EE5C52E54E0D52EE12CF12C20E0809156
:1042C000FA0B90E00E2C02C0959587950A94E2F7C0
:1042D00080FF17C0BB24B394B20E222319F08CE2E6
:1042E0000E94AA3EF60185919491FC0184918F0170
:1042F0000F5F1F4F882321F00E94AA3EF801F6CFDE
:104300002B2DAFEFEA1AFA0AB2E0CB0ED11CE5E092
:10431000EE16F104A1F641C084918F010F5F1F4F8B
:104320008823D9F10E94AA3EF801F6CF8AE50E94BF
:10433000383E882311F40C94BC2A0E94053E6B0180
:104340007C0120E030E040EA51EC0E94A4E287FFCB
:1043500002C00C94AE2A20E030E040EA51E4C701EC
:10436000B6010E94EAD9181614F40C94AE2AC09231
:104370006A13D0926B13E0926C13F0926D1380E08D
:104380000E94766660916A1370916B1380916C1332
:1043900090916D1342E00E945B438AE00E94AA3E26
:1043A0000C945C2B10922C020C945C2B83E794E011
:1043B0000E942B7483E50E94673E811103C0E8E1EF
:1043C000F7E20DC00E94E53D8D3320F48093720228
:1043D0000C945C2B8CE3809372020C945C2B849184
:1043E0008F010F5F1F4F882321F00E94AA3EF80122
:1043F000F6CF4091720250E060E070E08CE794E00C
:104400000E9481588AE00E94AA3E0C945C2B809105
:10441000FA0B83FF02C00C945C2B83E50E94673E7D
:10442000882311F40C945C2B0E94053E0E94C2E18B
:10443000CB010E94793E0C945C2B89E690E00E94AF
:10444000993F811111C0E3E8F4E084918F010F5F7F
:104450001F4F882321F00E94AA3EF801F6CF0E9448
:10446000CC998AE00E94AA3E1092BC0D1092BB0D1E
:104470000C94652C83E50E94673E882311F40C940C
:104480005C2B0E94E53D8D3308F08CE38093C10DD9
:104490000E940DCB6B017C012091C10D30E0A8EE94
:1044A000B3E00E946EE0C60ED71EE81EF91EC09251
:1044B000BD0DD092BE0DE092BF0DF092C00D0C94D8
:1044C0005C2B8DE690E00E94993F81110C945C2B4F
:1044D0008091FA0B83FF02C00C945C2B83E50E9451
:1044E000673E81110C94EF2B82E50E94673E81119B
:1044F0000C94EF2B0C945C2B8091FA0B83FF02C081
:104500000C945C2B83E50E94673E81110C94FD2B7B
:1045100082E50E94673E81110C94FD2B0C945C2B6C
:1045200083E50E94673E882339F00E94D53D8B01C8
:104530006F3F710519F010F00FEF10E080E50E9459
:10454000673E811106C01093EB090093EA090C94B1
:104550005C2B0E94E53D81110C945C2BF4CF80E52F
:104560000E94673E811106C01092EB091092EA0981
:104570000C945C2B0E94D53D672B11F00C945C2BA6
:10458000F3CF1092D7030C945C2B81E08093D70378
:104590000C945C2B83E50E94673E8823A1F00E9467
:1045A000053E20E030E04AE754E40E944FDA0E94E2
:1045B000C7E16093730270937402809375029093C5
:1045C00076020C945C2B88E50E94383E81110C9495
:1045D000092C89E50E94383E81110C94092C8AE54A
:1045E0000E94383E81110C94092C85E40E94383ECB
:1045F00081110C94092C0E94D9980E94F8B40C9453
:104600005C2B83E50E94383E882311F40C945C2BCC
:104610000E94053E20E030E04AE754E40E944FDA71
:104620000E94C7E16093C70D7093C80D8093C90DB8
:104630009093CA0D0C945C2BD6018D916D010E9454
:10464000383E882309F46DC0133009F063C00E941E
:10465000053E4B015C0120E030E040EA51E40E945D
:10466000EAD987FF4EC0A50194016091920D709127
:10467000930D8091940D9091950D0E945AE12B011C
:104680003C019B01AC0160914A0D70914B0D8091F2
:104690004C0D90914D0D0E944FDA60934A0D70932E
:1046A0004B0D80934C0D90934D0DA30192016091A1
:1046B000820D7091830D8091840D9091850D0E94E3
:1046C0004FDA6093820D7093830D8093840D9093E5
:1046D000850D6091070C7091080C8091090C9091E8
:1046E0000A0C0E94EED9A30192010E944FDA0E94A7
:1046F000C7E16093070C7093080C8093090C9093AA
:104700000A0C8092920D9092930DA092940DB0920B
:10471000950D07C00E94053EF70160837183828377
:1047200093831F5FF4E0EF0EF11C143009F084CF87
:104730000E94F476C1C784E40E94383E882319F0B1
:104740000E94536BB9C70E94D9980E940D99B4C7B3
:104750000E94AA3EF80184918F010F5F1F4F8111C3
:10476000F7CFE3E5F5E003C00E94AA3EF80184918B
:104770008F010F5F1F4F8111F7CFECE3F5E003C00E
:104780000E94AA3EF80184918F010F5F1F4F811193
:10479000F7CFECE2F5E003C00E94AA3EF801849155
:1047A0008F010F5F1F4F8111F7CFEBE1F5E003C0E1
:1047B0000E94AA3EF80184918F010F5F1F4F811163
:1047C000F7CFEAE0F5E003C00E94AA3EF801849129
:1047D0008F010F5F1F4F8111F7CFEBEFF4E003C0A4
:1047E0000E94AA3EF80184918F010F5F1F4F811133
:1047F000F7CFE6EEF4E003C00E94AA3EF8018491F0
:104800008F010F5F1F4F8111F7CFE0EDF4E003C080
:104810000E94AA3EF80184918F010F5F1F4F811102
:10482000F7CFEBEBF4E003C00E94AA3EF8018491BD
:104830008F010F5F1F4F8111F7CFEEE9F4E003C046
:104840000E94AA3EF80184918F010F5F1F4F8111D2
:10485000F7CFE6E8F4E084918F010F5F1F4F8823C4
:1048600009F42AC70E94AA3EF801F5CF85E40E9408
:10487000383E882381F00E94F63D882361F0E8E10C
:10488000F7E284918F010F5F1F4F882321F00E9470
:10489000AA3EF801F6CF81E40E94383E882381F0D9
:1048A0000E94F63D882361F0E3E2F6E084918F01F7
:1048B0000F5F1F4F882321F00E94AA3EF801F6CF18
:1048C0000091340410913504D8018D918D01882315
:1048D00009F463CD0E94AA3EF7CF0E942A49ECC694
:1048E00081E08093270280931504E6C61092270288
:1048F00010921504E1C688EC90E00E94993F811166
:10490000DBC684E40E94383E882309F443C00E9439
:10491000053E6B017C0111E020E030E0A9010E941E
:10492000EAD9811101C010E010939A0D20E030E027
:10493000A901C701B6010E94EAD9882359F1009163
:10494000D00310E00E94053E000F111F000F111F41
:10495000F801EC59FD4F608371838283938320E0DB
:1049600030E0A90160916402709165028091660255
:10497000909167020E94EAD981110CC080E090E01A
:10498000A0E4B0E48093640290936502A093660271
:10499000B09367020E9414B58FC615E8E12E12E0AD
:1049A000F12E06E61DE086E7C82E8DE0D82EF70131
:1049B00081917F010E94383E882351F00E94053E7C
:1049C0000E94C7E1D8016D937D938D939C931397BB
:1049D0000C5F1F4FC016D10651F70E9492756CC62E
:1049E000B5E8EB2EB2E0FB2E06E71DE0F701819162
:1049F0007F010E94383E882341F00E94053ED80185
:104A00006D937D938D939C9313970C5F1F4FBDE027
:104A100006381B0759F750C683E50E94383E8823A5
:104A2000D9F00E94053EAB01BC014093620D50934A
:104A3000630D6093640D7093650D40935A0D509310
:104A40005B0D60935C0D70935D0D81E896E00E94B4
:104A50009E588AE00E94AA3E80E50E94383E882344
:104A600099F00E94053EAB01BC014093620D50934A
:104A7000630D6093640D7093650D84E696E00E946B
:104A80009E588AE00E94AA3E82E50E94383E882312
:104A900099F00E94053EAB01BC0140935E0D50931E
:104AA0005F0D6093600D7093610D85E496E00E9448
:104AB0009E588AE00E94AA3E84E50E94383E8823E0
:104AC00009F4FAC50E94053EAB01BC0140935A0DA2
:104AD00050935B0D60935C0D70935D0D87E296E0E3
:104AE0000E949E588AE00E94AA3EE6C583E50E9485
:104AF000383E882351F00E94053E6093560D709316
:104B0000570D8093580D9093590D84E50E94383EBF
:104B1000882351F00E94053E60934E0D70934F0D17
:104B20008093500D9093510D82E40E94383E88236B
:104B300051F00E94C53D6093520D7093530D8093C8
:104B4000540D9093550D88E50E94383E882351F00E
:104B50000E94053E60933E0D70933F0D8093400D83
:104B60009093410D89E50E94383E882351F00E94C0
:104B7000053E6093420D7093430D8093440D9093D6
:104B8000450D8AE50E94383E882351F00E94053E7B
:104B90006093460D7093470D8093480D9093490D97
:104BA00085E40E94383E882309F486C50E94053EAC
:104BB00060934A0D70934B0D80934C0D90934D0D67
:104BC0007BC50F5F1F4F0330110509F444C0F70187
:104BD00081917F010E94383E882399F30E94053E0F
:104BE000AB01BC01C8010E94423DEBCF21ED33E097
:104BF0003DA72CA79EE7892E93E1992E2EE6A22EA3
:104C000023E1B22E3BE2C32E3DE0D32E47E3242E18
:104C100042E0342E5EEAE52E57E0F52E00E010E08B
:104C2000ACA5BDA58D91BDA7ACA78111BBC30F5F7E
:104C30001F4FB4E08B0E911CE4E0AE0EB11CF4E00B
:104C4000CF0ED11C24E0220E311C34E0E30EF11C07
:104C50000330110529F70E947E3D0E940D992CC555
:104C600084918F010F5F1F4F882321F00E94AA3E7D
:104C7000F801F6CF83E50E94383E882321F00E9498
:104C8000F63D80934302E1EDF6E084918F010F5FE2
:104C90001F4F882321F00E94AA3EF801F6CF809191
:104CA0004302882319F0E9ECF6E002C0EDECF6E0EF
:104CB00084918F010F5F1F4F811103C0E1ECF6E07B
:104CC00004C00E94AA3EF801F3CF84918F010F5FC8
:104CD0001F4F882321F00E94AA3EF801F6CF409191
:104CE0002B0D50912C0D60912D0D70912E0D8FEB91
:104CF00096E00E949E5840912F0D5091300D60918A
:104D0000310D7091320D8CEB96E00E949E584091CF
:104D1000330D5091340D6091350D7091360D89EB46
:104D200096E00E949E58E1EBF6E084918F010F5FC0
:104D30001F4F882321F00E94AA3EF801F6CF409130
:104D40003702509138026091390270913A028FEA2D
:104D500096E00E949E5840913B0250913C02609127
:104D60003D0270913E028CEA96E00E949E5840916E
:104D70003F0250914002609141027091420289EAE3
:104D800096E00E949E588AE00E94AA3E95C483E560
:104D90000E94673E882309F48FC40E94D53D70931A
:104DA00032026093310288C48DED90E00E94993FF9
:104DB000811182C483E50E94673E882309F47CC484
:104DC0000091D00310E00E94D53D000F111FF801A3
:104DD000EF5FFD4F718360836FC480E50E94383EB2
:104DE000882309F469C40E94D53D6B017C0183E5E9
:104DF0000E94673E882321F00E94D53D8B0102C0AE
:104E00000FEF1FEFC8010196039708F055C4D7FCB8
:104E100053C48C2DE1EEF6E09491891709F44CC44B
:104E2000319627E0E930F207B9F71DC580E50E9409
:104E3000383E882309F440C40E94D53D6B017C01B3
:104E40008B01672B19F0E3E0F7E27FC083E50E9456
:104E5000383E811103C0E8E1F7E207C00E94D53D6A
:104E600083EC90E10E944A5727C484917F013FEF71
:104E7000E31AF30A882321F00E94AA3EF701F5CF36
:104E800060E070E082E297E00E94BB588091C5101C
:104E900028E532E06901C81AD10887FDD394CC0C0B
:104EA000DD1CCC0CDD1C0D2C000CEE08FF088091E5
:104EB000C41028E830E04901881A910887FD9394CE
:104EC000880C991C880C991C092C000CAA08BB089A
:104ED0008091C3108F3FB9F090E0FC01EE0FFF1FEF
:104EE0008E0F9F1FFC01EA5AFF4E0181128153E091
:104EF000000F111F5A95E1F764E0169507956A9522
:104F0000E1F70E5F1F4F98012F5F3F4FC901330F2D
:104F1000AA0BBB0B9C01AD01281939094A095B0991
:104F2000A4EBB0E00E9464E0A701960128193909BA
:104F30004A095B090E9448E0B9018FE197E00E94AD
:104F4000BB588AE00E94AA3EB7C384918F010F5FCD
:104F50001F4F882321F00E94AA3EF801F6CFB60128
:104F600088E197E00E94BB58E9E0F7E084918F0167
:104F70000F5F1F4F882309F49FC30E94AA3EF801C8
:104F8000F5CF85E40E94673E811110C080E50E9444
:104F9000383E882391F00E94053E60936002709332
:104FA0006102809362029093630207C00E94E53D14
:104FB000882361F3E3E0F7E271C089E40E94383EA0
:104FC000882381F00E94053E2CEA35EC47E25EE33F
:104FD0000E944FDA60935C0270935D0280935E02E0
:104FE00090935F0284E40E94383E882381F00E94FF
:104FF000053E2CEA35EC47E25EE30E945AE16093FD
:1050000058027093590280935A0290935B02E8E130
:10501000F7E284918F010F5F1F4F882321F00E94D8
:10502000AA3EF801F6CF4091600250916102609172
:1050300062027091630282E397E00E949E582CEA1C
:1050400035EC47E25EE360915C0270915D02809115
:105050005E0290915F020E945AE1AB01BC018EE2B8
:1050600097E00E949E582CEA35EC47E25EE360919F
:1050700058027091590280915A0290915B020E94ED
:105080004FDAAB01BC018AE297E00E949E588AE0A9
:105090000E94AA3E11C30E94AA3EF80184918F018A
:1050A0000F5F1F4F8111F7CF0DE013E0D8018D91F5
:1050B0008D01882309F471C90E94AA3EF7CF80E5CB
:1050C0000E94383E882351F00E94053E60935402AE
:1050D00070935502809356029093570289E40E9480
:1050E000383E882381F00E94053E2CEA35EC47E2E9
:1050F0005EE30E944FDA60935002709351028093F6
:1051000052029093530284E40E94383E882381F037
:105110000E94053E2CEA35EC47E25EE30E945AE12C
:1051200060934C0270934D0280934E0290934F0215
:10513000E8E1F7E284918F010F5F1F4F882321F090
:105140000E94AA3EF801F6CF4091540250915502B8
:1051500060915602709157028EE397E00E949E582C
:105160002CEA35EC47E25EE3609150027091510207
:1051700080915202909153020E945AE1AB01BC010E
:105180008AE397E00E949E582CEA35EC47E25EE302
:1051900060914C0270914D0280914E0290914F02AD
:1051A0000E944FDAAB01BC0186E397E00E949E5853
:1051B0008AE00E94AA3E80C20E9404677DC281E00C
:1051C0000E946C5C79C280E00E946C5C75C286E5CE
:1051D0000E94383E882341F08091270D9091280D40
:1051E000892B11F00E942BCD83E50E94383E182FA9
:1051F000882319F00E94F63D182F83E50E94383E5F
:10520000882319F0812F0E94685AF090F50B111134
:1052100003C0E8E1F7E21BC0F110FBCFE3E0F7E2E7
:1052200084918F010F5F1F4F811103C0E0E5F7E00C
:1052300004C00E94AA3EF801F3CF84918F010F5F52
:105240001F4F882331F30E94AA3EF801F6CF8491C4
:105250008F010F5F1F4F882321F00E94AA3EF801A3
:10526000F6CFFF2019F065E073E002C069E073E05B
:1052700082E497E00E94D4588AE00E94AA3E1CC2B1
:1052800089E40E94673E882321F00E94D53D162FB5
:1052900001C01FEF8AE40E94673E882321F00E942C
:1052A000D53D062F01C00FEF8AE50E94383EF82E4B
:1052B000811105C081E50E94383ED82E01C0D12C55
:1052C00017FD06C007FD04C0F1101CC0D1101AC0A4
:1052D000E3E0F7E284918F010F5F1F4F811103C05C
:1052E000EEE8F7E004C00E94AA3EF801F3CF8491F3
:1052F0008F010F5F1F4F882309F4DEC10E94AA3E71
:10530000F801F5CF133010F40330D0F0E3E0F7E20A
:1053100084918F010F5F1F4F811103C0EFE6F7E00B
:1053200004C00E94AA3EF801F3CF84918F010F5F61
:105330001F4F882309F4C0C10E94AA3EF801F5CF8F
:10534000E12E110FFF08002E000C110B0E94053EEC
:10535000D701AA0FBB1FDD2081F0FD01EE0DFF1D5F
:10536000E00FF11FEE0FFF1FEE0FFF1FE150F34F95
:10537000208131814281538103C020E030E0A901C6
:10538000EA0EFB1E0E0D1F1D000F111F000F111F37
:105390000150134F0E947EE0F80160837183828385
:1053A00093838AC1F5014080518062807380D1016E
:1053B0002D913D914D915C91F601608171818281C9
:1053C00093810E947EE020E030E040E05FE30E94B5
:1053D0004FDA9B01AC01C301B2010E94A4E218168E
:1053E00054F4F70185919591A591B49188AB98AF4C
:1053F000ACABBCAF04C018AA18AE1CAA1CAED4013A
:105400002D913D914D915C91C301B2010E947DE0CF
:105410009B01AC0168A978AD8CA99CAD0E947DE090
:105420002B013C0120E030E040EA51EC0E94A4E274
:1054300087FD0AC020E030E040EA51E4C301B20138
:105440000E94EAD918161CF4E3E0F7E209C0B301A0
:10545000A201C8010E94423DEACB0E94AA3EF80187
:1054600084918F010F5F1F4F8111F7CFEAEBF7E0B7
:1054700084918F010F5F1F4F882309F41DC10E9483
:10548000AA3EF801F5CF0E9475A416C10E948C496E
:1054900013C183E50E94383E882319F00E94F63D2F
:1054A00001C081E091E089270E94E24A05C110E035
:1054B000113029F0123031F0EEEEF7E006C0E5EFE2
:1054C000F7E00EC0EDEFF7E019C084917F014FEFD8
:1054D000E41AF40A882331F10E94AA3EF701F5CFBD
:1054E00084917F015FEFE51AF50A8823D9F00E94C5
:1054F000AA3EF701F5CF0E94AA3EF70184917F01F1
:105500009FEFE91AF90A8111F6CFE8EDF7E08491EF
:105510007F01AFEFEA1AFA0A882321F00E94AA3E1F
:10552000F701F5CF1F5F133009F0C2CFC5C00E944D
:10553000AA3EF80184918F010F5F1F4F8111F7CFB1
:10554000E4E3F8E084918F010F5F1F4F882311F48B
:105550000C9496210E94AA3EF801F4CFEDE1F8E008
:1055600084918F010F5F1F4F882311F40C94CD217C
:105570000E94AA3EF801F4CF40916A1350916B1338
:1055800060916C1370916D138AE198E00E949E58AF
:105590008091F50B811103C0EEE0F8E00EC0E2E06F
:1055A000F8E084918F010F5F1F4F882311F40C9452
:1055B000CD210E94AA3EF801F4CF84918F010F5FA4
:1055C0001F4F882311F40C94CD210E94AA3EF801AC
:1055D000F4CF0E94326370C00E94AA3EF801849109
:1055E0008F010F5F1F4F8111F7CFEEE3F8E0849139
:1055F0008F010F5F1F4F882309F45EC00E94AA3EEF
:10560000F801F5CF81E08093030283E50E94383EE4
:10561000811103C00E9451B84FC00E94F63D811114
:105620004BC0F8CF0E94DB8947C00E94F78C44C072
:10563000D82A8D2D0E940345F12CF8018081982FE6
:105640009F7D9154963030F090ED980F9A3010F085
:10565000803291F50E94AA3ED8018D918D01803251
:1056600061F39FEB980F963010F4875325C19FE9A3
:10567000980F963010F487551FC180531DC180913B
:1056800036040E94098D18C084918F010F5F1F4F4F
:10569000882321F00E94AA3EF801F6CF60913904D8
:1056A00070913A048DE498E00E94D45882E20E94FE
:1056B000AA3E8AE00E94AA3E1092BC0D1092BB0D39
:1056C0000E9432B802C180E00E94685A0E94395B91
:1056D00083E50E94383E882309F449C00E94F63DC4
:1056E00021E0482FBE016F5F7F4FCE0180960E9460
:1056F0002FC86B017C019B01AC010E942CE381113E
:1057000031C02CEA35EC47E257E368A179A18AA1C0
:105710009BA10E947EE0AB01BC018BEA93E00E945A
:105720009E582CEA35EC47E257E369817A818B81F8
:105730009C810E947EE0AB01BC0186EA93E00E945E
:105740009E582CEA35EC47E257E3C701B6010E94A8
:105750007EE0AB01BC0181EA93E00E949E588AE0A2
:105760000E94AA3E0E941F5B0E940D99A5CF81E076
:10577000B7CFF8018081882311F40C94DC1EE8E196
:10578000F7E284915F012FEFA21AB20A882321F079
:105790000E94AA3EF501F5CFD8018D918D01882395
:1057A00019F00E94AA3EF8CF8AE00E94AA3E0C940B
:1057B000DC1E80E00E9488B20C94FA1E0E94D53D47
:1057C000AB01BC0140935213509353136093541395
:1057D0007093551387E091E10E94ECBC6DCF0E945D
:1057E000053E0E94C2E1CB010E94CBA70E9463CB81
:1057F0000E94589B80912C025FCF0E94053E0E9420
:10580000C2E1CB010E94793E0E944F9A80912C0206
:1058100053CF0E94D99888E50E94383E882319F01A
:105820008E9A1092A60989E50E94383E882319F0C5
:10583000749A1092A7098AE50E94383E882351F095
:105840009FB7F894809108018061809308019FBF01
:105850001092A80985E40E94383E882309F42CCFD1
:105860000E9486B229CF0E94D998BC2C60E08C2D72
:105870000E9499CA0F3FBFEF1B0759F48C2D0E945D
:1058800043CA31E020E0892B09F030E0032F122FCA
:1058900005C00130110569F401E010E08B2D0E9474
:1058A00043CA8017910709F407CF80E00E9488B2AD
:1058B000F5CF00E010E0F2CFF110BACED82ED2949E
:1058C00080EFD822FF24F394B8CEC15ADF4F0FB631
:1058D000F894DEBF0FBECDBFDF91CF911F910F9126
:1058E000FF90EF90DF90CF90BF90AF909F908F9000
:1058F0007F906F905F904F903F902F9008954F92C0
:105900005F926F927F928F929F92AF92BF92CF924F
:10591000DF92EF92FF920F931F93CF93DF93CDB758
:10592000DEB7CE55D1090FB6F894DEBF0FBECDBF9E
:105930000E940DCB4B015C014091A9095091AA092D
:105940004115510509F49FC020E030E0E1E0F0E0AE
:10595000BF01022E02C0660F771F0A94E2F7DA0138
:10596000A623B723AB2BD1F0609570954623572320
:105970005093AA094093A909223009F451C028F490
:10598000222391F02130F9F07EC0243009F450C078
:1059900008F441C0253009F461C075C02F5F3F4F46
:1059A00020313105A9F66FC080912A0290912B0217
:1059B0008136910509F467C081E690E00E94324586
:1059C00081E690E058C08091E61040E150E08823E5
:1059D00019F066EE70E102C069ED70E1CE0101964A
:1059E0000E94F6E36EE270E0CE0101960E94CDE3E4
:1059F000FC018081882311F01192FBCF80ED90E1B2
:105A000098A38F8F40E1BE016F5F7F4FCE014F960D
:105A10000E94524538C08091B6098F7E8093B609A6
:105A20008091B60984608093B6090E942EAC2BC089
:105A30000E9405AB2091D61080912A0290912B02F2
:105A400021110C94213A2091C6103091C7102130B9
:105A5000310511F40C94213A0C94173A80912A02E2
:105A600090912B028534910571F085E490E00E94BD
:105A7000324585E490E09093290280932802909328
:105A80002B0280932A021091090111708091B309B1
:105A9000181709F45BC0111121C0ECE7F8E08491FC
:105AA0007F012FEFE21AF20A882321F00E94AA3E1A
:105AB000F701F5CF0E9426BF8091D710882309F403
:105AC0003FC080E790E10E943C8481E090E09A83AF
:105AD0008983CE0101960E9421842FC080912A02E1
